:020000040000FA
:020000004D2889
:040002000034003492
:0800080088010B1D3F28A80A26
:10001000031D20282108031D0C112008031D0E12AA
:100020002208031D0E102308031D0E112408031DB2
:100030008C122508031D0C122608031D8E123C2865
:1000400028082102031C0C1528082002031C0E1688
:1000500028082202031C0E1428082302031C0E1574
:1000600028082402031C8C1628082502031C0C16E1
:1000700028082602031C8E167D3095000B11111CDA
:100080004C2811102908031D48282A0803194C2858
:100090000130A902031CAA03090088018B017D30ED
:1000A00095009901111031309800FF309B003E30CF
:1000B0009C009A012030840085015030F0008001BE
:1000C000840AF00B5F285530AD00AE00AF00B000E1
:1000D000033088008C018E01023088002B308C00A8
:1000E00000308E00013088008C0102308E007830A4
:1000F0009900D830950011148801E0308B006C2AEB
:100100008E189B28B301AC01AC0B842803148E1C01
:100110000310B30C3309031D8328B40A35143408C3
:1001200007390B00332A1B2AFC29DD29952965296B
:10013000F328C7288028B5019222A9008E1CA901A6
:100140002908031D9E2892221F390B00332A1B2ADF
:10015000FC29DD2995296529F328C7281B2A1B2A94
:10016000332AFC29DD2995296529F3281B2A1B2A16
:100170001B2A1B2AFC29DD2965291B2A1B2A1B2A6D
:10018000332AFC29DD2995296529F3288028351C87
:10019000CC284030B200CE289222B2009222B32264
:1001A000A2009222B322A3009222B322A4009222A0
:1001B000B322A5009222B322A6009222B322A1006C
:1001C0009222B322A0009222073903190130A822FB
:1001D000B20BCE28FF30A200A300A400A500A60009
:1001E000A100A0008028351CF8280530B200FC28AA
:1001F000922207390138B2000F30AB002B08B3222E
:10020000A200A6009222033903190130A822AB03F1
:100210002B08073A031DFE282B08B322A200A600D4
:100220002B08083EB322A300A5009222033903192C
:100230000130A822AB0B0C29A201A6010830AB00AB
:100240002B08B322A300A500922203390319013021
:10025000A822AB0B20292B08B322A300A5009222D1
:10026000033903190130A822AB0A2B08093A031DF0
:100270002B292B08B322A300A50008302B02B322A0
:10028000A200A6009222033903190130A822AB0A6A
:100290002B080F3A031D3929FF30A300A6000830B0
:1002A000AB002B08B322A200A60092220339031947
:1002B0000130A822AB0A2B080F3A031D5129FF3049
:1002C000A200A500B20BFC288028351C6A29053045
:1002D000B2006E29922207390138B2000F30AB000C
:1002E0002B08B322A1000130A822AB0B7029F030FB
:1002F000AB002B08B322A1000130A822AB0F792953
:100300000F30AB002B08B322A0000130A822AB0BAA
:100310008229F030AB002B08B322A0000130A822C4
:10032000AB0F8B29B20B6E298028351C9A29073018
:10033000B2009E29922207390138B2000F30AB007B
:100340002B08B322A6000130A822AB0BA029F03065
:10035000AB002B08B322A6000130A822AB0FA929BD
:100360000F30AB002B08B322A300A5000130A82258
:10037000AB0BB229F030AB002B08B322A300A500D1
:100380000130A822AB0FBC290F30AB002B08B322E1
:10039000A200A400A6000130A822AB0BC629F030B1
:1003A000AB002B08B322A200A400A6000130A822B3
:1003B000AB0FD129B20BB02980282030A60008301D
:1003C000A822FF30A6002030A5000830A822FF3068
:1003D000A5002030A4000830A822FF30A40020305F
:1003E000A3000830A822FF30A3002030A20008306C
:1003F000A822FF30A20080282030A2000830A822C6
:10040000FF30A2002030A3000830A822FF30A30054
:100410002030A4000830A822FF30A4002030A5001E
:100420000830A822FF30A5002030A6000830A822FE
:10043000FF30A600802892222F1CA101AF1CA00132
:100440002F1C262AAF1C262AA101A001351C2B2A0D
:100450001830A9002E2A92227F390338A822FF30B3
:10046000A100A00080280F30AB002B08B322A10010
:10047000A0000730A822AB0B352AA101A001351C32
:10048000442A0830A900482A92223F390138A9009D
:100490008E1CA9012908031D482A0F30AB002B0828
:1004A000B322A200A300A400A500A6000730A82242
:1004B000AB0B4F2AA201A301A401A501A601351C83
:1004C000642A0830A900672A92221038A9008E1CDD
:1004D000A9012908031D672AF030AB002B08B322BD
:1004E000A200A300A400A500A6000730A822AB0F1D
:1004F0006E2A351C7E2A0830A900822A92223F39B2
:100500000138A9008E1CA9012908031D822AF03098
:10051000AB002B08B322A100A0000730A822AB0F2C
:10052000892A80280830B1002C102D182C142D1980
:10053000AC092D1BAC09AD1BAC0903102C1803141E
:10054000B00CAF0CAE0CAD0CB10B942A2D0808000A
:10055000AC009A0191108E1C0800911CAB2A9110DE
:10056000AC0BAB2A08000F390B0000340134033404
:1005700007340B3412341E342834323441345034AE
:1005800064347D34A034C834FF3408005000650062
:100590007400650072002000530068006100620072
:1005A00069006E006F002000320031004A007500C3
:1005B0006C003200300031003900200063006F0011
:1005C00064006500200056003100200066006F00C6
:1005D00072002000430068006500730074006F0023
:1005E00072006F0020006200790020005400770044
:1005F00069006E006B006C006500540077006900B4
:100600006E006B00690065002000770077007700BE
:100610002E007700690072006500320077006900E3
:0C062000720065002E006F007200670081
:020000040001F9
:02000E00843F2D
:02001000FF1FD0
:00000001FF
